{
  "contractName": "Casino",
  "abi": [
    {
      "constant": false,
      "inputs": [],
      "name": "generateNumberWinner",
      "outputs": [],
      "payable": false,
      "stateMutability": "nonpayable",
      "type": "function"
    },
    {
      "constant": true,
      "inputs": [],
      "name": "numberOfBets",
      "outputs": [
        {
          "name": "",
          "type": "uint256"
        }
      ],
      "payable": false,
      "stateMutability": "view",
      "type": "function"
    },
    {
      "constant": true,
      "inputs": [
        {
          "name": "player",
          "type": "address"
        }
      ],
      "name": "checkPlayerExists",
      "outputs": [
        {
          "name": "",
          "type": "bool"
        }
      ],
      "payable": false,
      "stateMutability": "view",
      "type": "function"
    },
    {
      "constant": false,
      "inputs": [],
      "name": "kill",
      "outputs": [],
      "payable": false,
      "stateMutability": "nonpayable",
      "type": "function"
    },
    {
      "constant": false,
      "inputs": [],
      "name": "resetData",
      "outputs": [],
      "payable": false,
      "stateMutability": "nonpayable",
      "type": "function"
    },
    {
      "constant": false,
      "inputs": [
        {
          "name": "numberWinner",
          "type": "uint256"
        }
      ],
      "name": "distributePrizes",
      "outputs": [],
      "payable": false,
      "stateMutability": "nonpayable",
      "type": "function"
    },
    {
      "constant": false,
      "inputs": [
        {
          "name": "number",
          "type": "uint256"
        }
      ],
      "name": "bet",
      "outputs": [],
      "payable": true,
      "stateMutability": "payable",
      "type": "function"
    },
    {
      "constant": true,
      "inputs": [],
      "name": "minimumBet",
      "outputs": [
        {
          "name": "",
          "type": "uint256"
        }
      ],
      "payable": false,
      "stateMutability": "view",
      "type": "function"
    },
    {
      "constant": true,
      "inputs": [],
      "name": "maxAmountOfBets",
      "outputs": [
        {
          "name": "",
          "type": "uint256"
        }
      ],
      "payable": false,
      "stateMutability": "view",
      "type": "function"
    },
    {
      "constant": true,
      "inputs": [
        {
          "name": "",
          "type": "uint256"
        }
      ],
      "name": "players",
      "outputs": [
        {
          "name": "",
          "type": "address"
        }
      ],
      "payable": false,
      "stateMutability": "view",
      "type": "function"
    },
    {
      "constant": true,
      "inputs": [],
      "name": "totalBet",
      "outputs": [
        {
          "name": "",
          "type": "uint256"
        }
      ],
      "payable": false,
      "stateMutability": "view",
      "type": "function"
    },
    {
      "inputs": [
        {
          "name": "_minimumBet",
          "type": "uint256"
        }
      ],
      "payable": false,
      "stateMutability": "nonpayable",
      "type": "constructor"
    },
    {
      "payable": true,
      "stateMutability": "payable",
      "type": "fallback"
    }
  ],
  "bytecode": "0x606060405267016345785d8a00006001556064600455341561002057600080fd5b60405160208061098383398101604052808051906020019091905050336000806101000a81548173ffffffffffffffffffffffffffffffffffffffff021916908373ffffffffffffffffffffffffffffffffffffffff16021790555060008114151561008e57806001819055505b506108e58061009e6000396000f3006060604052600436106100af576000357c0100000000000000000000000000000000000000000000000000000000900463ffffffff1680630a50e361146100b15780632ca8c6d3146100c65780634081d916146100ef57806341c0e1b514610140578063478c4e0e146101555780636ca3fc3b1461016a5780637365870b1461018d578063c38a8afd146101a5578063e08a96cd146101ce578063f71d96cb146101f7578063fe5e18531461025a575b005b34156100bc57600080fd5b6100c4610283565b005b34156100d157600080fd5b6100d96102a3565b6040518082815260200191505060405180910390f35b34156100fa57600080fd5b610126600480803573ffffffffffffffffffffffffffffffffffffffff169060200190919050506102a9565b604051808215151515815260200191505060405180910390f35b341561014b57600080fd5b61015361034d565b005b341561016057600080fd5b6101686103de565b005b341561017557600080fd5b61018b6004808035906020019091905050610400565b005b6101a36004808035906020019091905050610641565b005b34156101b057600080fd5b6101b86107ac565b6040518082815260200191505060405180910390f35b34156101d957600080fd5b6101e16107b2565b6040518082815260200191505060405180910390f35b341561020257600080fd5b61021860048080359060200190919050506107b8565b604051808273ffffffffffffffffffffffffffffffffffffffff1673ffffffffffffffffffffffffffffffffffffffff16815260200191505060405180910390f35b341561026557600080fd5b61026d6107f7565b6040518082815260200191505060405180910390f35b60006001600a4381151561029357fe5b060190506102a081610400565b50565b60035481565b600080600090505b600580549050811015610342578273ffffffffffffffffffffffffffffffffffffffff166005828154811015156102e457fe5b906000526020600020900160009054906101000a900473ffffffffffffffffffffffffffffffffffffffff1673ffffffffffffffffffffffffffffffffffffffff1614156103355760019150610347565b80806001019150506102b1565b600091505b50919050565b6000809054906101000a900473ffffffffffffffffffffffffffffffffffffffff1673ffffffffffffffffffffffffffffffffffffffff163373ffffffffffffffffffffffffffffffffffffffff1614156103dc576000809054906101000a900473ffffffffffffffffffffffffffffffffffffffff1673ffffffffffffffffffffffffffffffffffffffff16ff5b565b60006005816103ed91906107fd565b5060006002819055506000600381905550565b610408610829565b6000806000806000809450600093505b60058054905084101561055a5760058481548110151561043457fe5b906000526020600020900160009054906101000a900473ffffffffffffffffffffffffffffffffffffffff16925086600660008573ffffffffffffffffffffffffffffffffffffffff1673ffffffffffffffffffffffffffffffffffffffff1681526020019081526020016000206001015414156104fb578286866064811015156104bb57fe5b602002019073ffffffffffffffffffffffffffffffffffffffff16908173ffffffffffffffffffffffffffffffffffffffff168152505084806001019550505b600660008473ffffffffffffffffffffffffffffffffffffffff1673ffffffffffffffffffffffffffffffffffffffff168152602001908152602001600020600080820160009055600182016000905550508380600101945050610418565b600060058161056991906107fd565b50606460025481151561057857fe5b049150600090505b8481101561063057600073ffffffffffffffffffffffffffffffffffffffff1686826064811015156105ae57fe5b602002015173ffffffffffffffffffffffffffffffffffffffff161415156106235785816064811015156105de57fe5b602002015173ffffffffffffffffffffffffffffffffffffffff166108fc839081150290604051600060405180830381858888f19350505050151561062257600080fd5b5b8080600101915050610580565b6106386103de565b50505050505050565b6000151561064e336102a9565b151514151561065957fe5b6001811015801561066b5750600a8111155b151561067357fe5b600154341015151561068157fe5b34600660003373ffffffffffffffffffffffffffffffffffffffff1673ffffffffffffffffffffffffffffffffffffffff1681526020019081526020016000206000018190555080600660003373ffffffffffffffffffffffffffffffffffffffff1673ffffffffffffffffffffffffffffffffffffffff168152602001908152602001600020600101819055506001600360008282540192505081905550600580548060010182816107349190610868565b9160005260206000209001600033909190916101000a81548173ffffffffffffffffffffffffffffffffffffffff021916908373ffffffffffffffffffffffffffffffffffffffff16021790555050346002600082825401925050819055506004546003541015156107a9576107a8610283565b5b50565b60015481565b60045481565b6005818154811015156107c757fe5b90600052602060002090016000915054906101000a900473ffffffffffffffffffffffffffffffffffffffff1681565b60025481565b815481835581811511610824578183600052602060002091820191016108239190610894565b5b505050565b610c80604051908101604052806064905b600073ffffffffffffffffffffffffffffffffffffffff1681526020019060019003908161083a5790505090565b81548183558181151161088f5781836000526020600020918201910161088e9190610894565b5b505050565b6108b691905b808211156108b257600081600090555060010161089a565b5090565b905600a165627a7a723058207b36427d1ea58c98f2205226e0df55c0e38995b2934fc2ca653e82cca98b6c130029",
  "source": "pragma solidity ^0.4.11;\n\ncontract Casino {\n\taddress owner;\n\n\tuint public minimumBet = 100 finney;\n\tuint public totalBet;\n\tuint public numberOfBets;\n\tuint public maxAmountOfBets = 100;\n\taddress[] public players;\n\n\tstruct Player {\n\t   uint amountBet;\n\t   uint numberSelected;\n\t}\n\tmapping(address => Player) playerInfo;\n\n\n\tfunction Casino(uint _minimumBet){\n\t\towner = msg.sender;\n\t\tif(_minimumBet != 0) minimumBet = _minimumBet;\n\t}\n\n\tfunction kill(){\n\t\tif(msg.sender == owner)\n\t\t\tselfdestruct(owner);\n\t}\n\n\t// To bet for a number between 1 and 10 both inclusive\n\tfunction bet(uint number) payable{\n\t   assert(checkPlayerExists(msg.sender) == false);\n\t   assert(number >= 1 && number <= 10);\n\t   assert(msg.value >= minimumBet);\n\t   playerInfo[msg.sender].amountBet = msg.value;\n\t   playerInfo[msg.sender].numberSelected = number;\n\t   numberOfBets += 1;\n\t   players.push(msg.sender);\n\t   totalBet += msg.value;\n\n\t   if(numberOfBets >= maxAmountOfBets) generateNumberWinner();\n\t}\n\n\tfunction checkPlayerExists(address player) constant returns(bool){\n\t   for(uint i = 0; i < players.length; i++){\n\t      if(players[i] == player) return true;\n\t   }\n\t   return false;\n\t}\n\n\t// Generates a number between 1 and 10\n\tfunction generateNumberWinner(){\n\t   uint numberGenerated = block.number % 10 + 1; // This isn't secure\n\t   distributePrizes(numberGenerated);\n\t}\n\n\t// Sends the corresponding ether to each winner depending on the total bets\n\tfunction distributePrizes(uint numberWinner){\n\t   address[100] memory winners; // We have to create a temporary in memory array with fixed size\n\t   uint count = 0; // This is the count for the array of winners\n\t   for(uint i = 0; i < players.length; i++){\n\t      address playerAddress = players[i];\n\t      if(playerInfo[playerAddress].numberSelected == numberWinner){\n\t         winners[count] = playerAddress;\n\t         count++;\n\t      }\n\t      delete playerInfo[playerAddress]; // Delete all the players\n\t   }\n\t   players.length = 0; // Delete all the players array\n\t   uint winnerEtherAmount = totalBet / winners.length; // How much each winner gets\n\t   for(uint j = 0; j < count; j++){\n\t      if(winners[j] != address(0)) // Check that the address in this fixed array is not empty\n\t         winners[j].transfer(winnerEtherAmount);\n\t   }\n\t   resetData();\n\t}\n\n\t// Fallback function in case someone sends ether to the contract so it doesn't get lost\n   function() payable {}\n\n   function resetData(){\n\t   players.length = 0; // Delete all the players array\n\t   totalBet = 0;\n\t   numberOfBets = 0;\n\t}\n}\n\n\n\n\n\n\n\n\n\n\n\n\n",
  "sourcePath": "/Users/boon/Documents/dapp/contracts/Casino.sol",
  "compiler": {
    "name": "solc",
    "version": "0.4.18+commit.9cf6e910.Emscripten.clang"
  },
  "schemaVersion": "1.0.1",
  "updatedAt": "2018-01-07T08:34:29.895Z"
}